:020000040800F2
:1000000000040020F5010008E1010008E3010008F8
:10001000E5010008E7010008E90100080000000010
:10002000000000000000000000000000EB010008DC
:10003000ED01000800000000EF010008F1010008D8
:1000400035020008390200083D020008410200089C
:1000500045020008490200084D020008510200084C
:1000600055020008590200085D02000861020008FC
:1000700065020008690200086D02000871020008AC
:1000800075020008790200087D02000800000000E7
:1000900000000000000000000000000081020008D5
:1000A00085020008890200088D02000891020008FC
:1000B0009502000899020008000000009D02000857
:1000C000A10200080000000000000000A5020008D6
:1000D00000000000A9020008AD02000800000000B6
:1000E000B1020008B5020008B902000800000000D3
:1000F0000000000000000000000000000000000000
:1001000000000000000000000000000000000000EF
:100110000000000000000000BD020008C10200084D
:1001200080B51648006850F0010014490860144872
:1001300000681449084012490860104800681249D4
:1001400008400E4908600D48006830F480200B49D3
:1001500008600B48006830F4FE00094908600B484D
:100160005FF41F0101600A480021016000F014F8EB
:1001700008485FF00061016001BD0000001002400E
:10018000041002400000FFF8FFFFF6FE08100240D6
:100190002C10024008ED00E07047000000F009F864
:1001A000002801D0C046C046002000F005F800F04D
:1001B00004F8012070470000FEE700F001B80000DD
:1001C0000746384600F002F8FBE7000080B5C0465D
:1001D000C046024A11001820ABBEFBE72600020011
:1001E0007047FEE7FEE7FEE7FEE77047704770479F
:1001F000704700000148804701480047210100087E
:1002000005020008C046C046C046C046FFF7C6FF0C
:10021000FFF7E6BFFFF7E5BFFFF7E4BFFFF7E3BF78
:10022000FFF7E2BFFFF7E1BFFFF7E0BFFFF7DFBF78
:10023000FFF7DEBFFFF7FEBFFFF7FEBFFFF7FEBF12
:10024000FFF7FEBFFFF7FEBFFFF7FEBFFFF7FEBFE2
:10025000FFF7FEBFFFF7FEBFFFF7FEBFFFF7FEBFD2
:10026000FFF7FEBFFFF7FEBFFFF7FEBFFFF7FEBFC2
:10027000FFF7FEBFFFF7FEBFFFF7FEBFFFF7FEBFB2
:10028000FFF7FEBFFFF7FEBFFFF7FEBFFFF7FEBFA2
:10029000FFF7FEBFFFF7FEBFFFF7FEBFFFF7FEBF92
:1002A000FFF7FEBFFFF7FEBFFFF7FEBFFFF7FEBF82
:1002B000FFF7FEBFFFF7FEBFFFF7FEBFFFF7FEBF72
:0402C000FFF7FEBF87
:0400000508000205E8
:00000001FF
